{
  "_format": "hh-sol-artifact-1",
  "contractName": "Transactions",
  "sourceName": "contracts/Transactions.sol",
  "abi": [
    {
      "anonymous": false,
      "inputs": [
        {
          "indexed": false,
          "internalType": "address",
          "name": "from",
          "type": "address"
        },
        {
          "indexed": false,
          "internalType": "address",
          "name": "receiver",
          "type": "address"
        },
        {
          "indexed": false,
          "internalType": "uint256",
          "name": "amount",
          "type": "uint256"
        },
        {
          "indexed": false,
          "internalType": "string",
          "name": "message",
          "type": "string"
        },
        {
          "indexed": false,
          "internalType": "uint256",
          "name": "timestamp",
          "type": "uint256"
        },
        {
          "indexed": false,
          "internalType": "string",
          "name": "keyword",
          "type": "string"
        }
      ],
      "name": "Transfer",
      "type": "event"
    },
    {
      "inputs": [
        {
          "internalType": "address payable",
          "name": "_receiver",
          "type": "address"
        },
        {
          "internalType": "uint256",
          "name": "_amount",
          "type": "uint256"
        },
        {
          "internalType": "string",
          "name": "_message",
          "type": "string"
        },
        {
          "internalType": "string",
          "name": "_keyword",
          "type": "string"
        }
      ],
      "name": "addBlockchain",
      "outputs": [],
      "stateMutability": "nonpayable",
      "type": "function"
    },
    {
      "inputs": [],
      "name": "getAllTransactions",
      "outputs": [
        {
          "components": [
            {
              "internalType": "address",
              "name": "sender",
              "type": "address"
            },
            {
              "internalType": "address",
              "name": "receiver",
              "type": "address"
            },
            {
              "internalType": "uint256",
              "name": "amount",
              "type": "uint256"
            },
            {
              "internalType": "string",
              "name": "message",
              "type": "string"
            },
            {
              "internalType": "uint256",
              "name": "timestamp",
              "type": "uint256"
            },
            {
              "internalType": "string",
              "name": "keyword",
              "type": "string"
            }
          ],
          "internalType": "struct Transactions.TransferStruct[]",
          "name": "",
          "type": "tuple[]"
        }
      ],
      "stateMutability": "view",
      "type": "function"
    },
    {
      "inputs": [
        {
          "internalType": "uint256",
          "name": "",
          "type": "uint256"
        }
      ],
      "name": "transactions",
      "outputs": [
        {
          "internalType": "address",
          "name": "sender",
          "type": "address"
        },
        {
          "internalType": "address",
          "name": "receiver",
          "type": "address"
        },
        {
          "internalType": "uint256",
          "name": "amount",
          "type": "uint256"
        },
        {
          "internalType": "string",
          "name": "message",
          "type": "string"
        },
        {
          "internalType": "uint256",
          "name": "timestamp",
          "type": "uint256"
        },
        {
          "internalType": "string",
          "name": "keyword",
          "type": "string"
        }
      ],
      "stateMutability": "view",
      "type": "function"
    },
    {
      "inputs": [],
      "name": "transactionsCount",
      "outputs": [
        {
          "internalType": "uint256",
          "name": "",
          "type": "uint256"
        }
      ],
      "stateMutability": "view",
      "type": "function"
    }
  ],
  "bytecode": "0x608060405234801561001057600080fd5b50610e6f806100206000396000f3fe608060405234801561001057600080fd5b506004361061004c5760003560e01c806327506f5314610051578063949eb0fd1461006f5780639ace38c21461008b578063fd99a746146100c0575b600080fd5b6100596100de565b6040516100669190610b28565b60405180910390f35b610089600480360381019061008491906107b8565b610321565b005b6100a560048036038101906100a0919061084b565b6104e1565b6040516100b796959493929190610ab9565b60405180910390f35b6100c861067d565b6040516100d59190610b4a565b60405180910390f35b60606001805480602002602001604051908101604052809291908181526020016000905b8282101561031857838290600052602060002090600602016040518060c00160405290816000820160009054906101000a900473ffffffffffffffffffffffffffffffffffffffff1673ffffffffffffffffffffffffffffffffffffffff1673ffffffffffffffffffffffffffffffffffffffff1681526020016001820160009054906101000a900473ffffffffffffffffffffffffffffffffffffffff1673ffffffffffffffffffffffffffffffffffffffff1673ffffffffffffffffffffffffffffffffffffffff168152602001600282015481526020016003820180546101eb90610cf2565b80601f016020809104026020016040519081016040528092919081815260200182805461021790610cf2565b80156102645780601f1061023957610100808354040283529160200191610264565b820191906000526020600020905b81548152906001019060200180831161024757829003601f168201915b505050505081526020016004820154815260200160058201805461028790610cf2565b80601f01602080910402602001604051908101604052809291908181526020018280546102b390610cf2565b80156103005780601f106102d557610100808354040283529160200191610300565b820191906000526020600020905b8154815290600101906020018083116102e357829003601f168201915b50505050508152505081526020019060010190610102565b50505050905090565b60008081548092919061033390610d24565b919050555060016040518060c001604052803373ffffffffffffffffffffffffffffffffffffffff1681526020018673ffffffffffffffffffffffffffffffffffffffff16815260200185815260200184815260200142815260200183815250908060018154018082558091505060019003906000526020600020906006020160009091909190915060008201518160000160006101000a81548173ffffffffffffffffffffffffffffffffffffffff021916908373ffffffffffffffffffffffffffffffffffffffff16021790555060208201518160010160006101000a81548173ffffffffffffffffffffffffffffffffffffffff021916908373ffffffffffffffffffffffffffffffffffffffff160217905550604082015181600201556060820151816003019080519060200190610470929190610683565b506080820151816004015560a0820151816005019080519060200190610497929190610683565b5050507f416cfa4330a4565f45c2fd2dd4826a83a37443aba2ce6f79477c7355afac35fa3385858542866040516104d396959493929190610a4a565b60405180910390a150505050565b600181815481106104f157600080fd5b90600052602060002090600602016000915090508060000160009054906101000a900473ffffffffffffffffffffffffffffffffffffffff16908060010160009054906101000a900473ffffffffffffffffffffffffffffffffffffffff169080600201549080600301805461056690610cf2565b80601f016020809104026020016040519081016040528092919081815260200182805461059290610cf2565b80156105df5780601f106105b4576101008083540402835291602001916105df565b820191906000526020600020905b8154815290600101906020018083116105c257829003601f168201915b5050505050908060040154908060050180546105fa90610cf2565b80601f016020809104026020016040519081016040528092919081815260200182805461062690610cf2565b80156106735780601f1061064857610100808354040283529160200191610673565b820191906000526020600020905b81548152906001019060200180831161065657829003601f168201915b5050505050905086565b60005481565b82805461068f90610cf2565b90600052602060002090601f0160209004810192826106b157600085556106f8565b82601f106106ca57805160ff19168380011785556106f8565b828001600101855582156106f8579182015b828111156106f75782518255916020019190600101906106dc565b5b5090506107059190610709565b5090565b5b8082111561072257600081600090555060010161070a565b5090565b600061073961073484610b96565b610b65565b90508281526020810184848401111561075157600080fd5b61075c848285610cb0565b509392505050565b60008135905061077381610e0b565b92915050565b600082601f83011261078a57600080fd5b813561079a848260208601610726565b91505092915050565b6000813590506107b281610e22565b92915050565b600080600080608085870312156107ce57600080fd5b60006107dc87828801610764565b94505060206107ed878288016107a3565b935050604085013567ffffffffffffffff81111561080a57600080fd5b61081687828801610779565b925050606085013567ffffffffffffffff81111561083357600080fd5b61083f87828801610779565b91505092959194509250565b60006020828403121561085d57600080fd5b600061086b848285016107a3565b91505092915050565b6000610880838361099c565b905092915050565b61089181610c7a565b82525050565b6108a081610c2c565b82525050565b6108af81610c2c565b82525050565b60006108c082610bd6565b6108ca8185610bf9565b9350836020820285016108dc85610bc6565b8060005b8581101561091857848403895281516108f98582610874565b945061090483610bec565b925060208a019950506001810190506108e0565b50829750879550505050505092915050565b600061093582610be1565b61093f8185610c0a565b935061094f818560208601610cbf565b61095881610dfa565b840191505092915050565b600061096e82610be1565b6109788185610c1b565b9350610988818560208601610cbf565b61099181610dfa565b840191505092915050565b600060c0830160008301516109b46000860182610897565b5060208301516109c76020860182610897565b5060408301516109da6040860182610a2c565b50606083015184820360608601526109f2828261092a565b9150506080830151610a076080860182610a2c565b5060a083015184820360a0860152610a1f828261092a565b9150508091505092915050565b610a3581610c70565b82525050565b610a4481610c70565b82525050565b600060c082019050610a5f60008301896108a6565b610a6c6020830188610888565b610a796040830187610a3b565b8181036060830152610a8b8186610963565b9050610a9a6080830185610a3b565b81810360a0830152610aac8184610963565b9050979650505050505050565b600060c082019050610ace60008301896108a6565b610adb60208301886108a6565b610ae86040830187610a3b565b8181036060830152610afa8186610963565b9050610b096080830185610a3b565b81810360a0830152610b1b8184610963565b9050979650505050505050565b60006020820190508181036000830152610b4281846108b5565b905092915050565b6000602082019050610b5f6000830184610a3b565b92915050565b6000604051905081810181811067ffffffffffffffff82111715610b8c57610b8b610dcb565b5b8060405250919050565b600067ffffffffffffffff821115610bb157610bb0610dcb565b5b601f19601f8301169050602081019050919050565b6000819050602082019050919050565b600081519050919050565b600081519050919050565b6000602082019050919050565b600082825260208201905092915050565b600082825260208201905092915050565b600082825260208201905092915050565b6000610c3782610c50565b9050919050565b6000610c4982610c50565b9050919050565b600073ffffffffffffffffffffffffffffffffffffffff82169050919050565b6000819050919050565b6000610c8582610c8c565b9050919050565b6000610c9782610c9e565b9050919050565b6000610ca982610c50565b9050919050565b82818337600083830152505050565b60005b83811015610cdd578082015181840152602081019050610cc2565b83811115610cec576000848401525b50505050565b60006002820490506001821680610d0a57607f821691505b60208210811415610d1e57610d1d610d9c565b5b50919050565b6000610d2f82610c70565b91507fffffffffffffffffffffffffffffffffffffffffffffffffffffffffffffffff821415610d6257610d61610d6d565b5b600182019050919050565b7f4e487b7100000000000000000000000000000000000000000000000000000000600052601160045260246000fd5b7f4e487b7100000000000000000000000000000000000000000000000000000000600052602260045260246000fd5b7f4e487b7100000000000000000000000000000000000000000000000000000000600052604160045260246000fd5b6000601f19601f8301169050919050565b610e1481610c3e565b8114610e1f57600080fd5b50565b610e2b81610c70565b8114610e3657600080fd5b5056fea264697066735822122059f7517efc82a5faaef64eee8d72ff60a5b119c61bdc729fd36a991bd7a6beb864736f6c63430008000033",
  "linkReferences": {},
  "deployedLinkReferences": {}
}